{
  "contractName": "App",
  "abi": [
    {
      "constant": true,
      "inputs": [],
      "name": "totalCandidates",
      "outputs": [
        {
          "name": "",
          "type": "uint8"
        }
      ],
      "payable": false,
      "stateMutability": "view",
      "type": "function",
      "signature": "0x3866965c"
    },
    {
      "constant": true,
      "inputs": [
        {
          "name": "",
          "type": "uint8"
        }
      ],
      "name": "candidates",
      "outputs": [
        {
          "name": "id",
          "type": "uint8"
        },
        {
          "name": "name",
          "type": "string"
        },
        {
          "name": "voteCount",
          "type": "uint256"
        }
      ],
      "payable": false,
      "stateMutability": "view",
      "type": "function",
      "signature": "0x6d6277f4"
    },
    {
      "constant": false,
      "inputs": [],
      "name": "renounceOwnership",
      "outputs": [],
      "payable": false,
      "stateMutability": "nonpayable",
      "type": "function",
      "signature": "0x715018a6"
    },
    {
      "constant": true,
      "inputs": [],
      "name": "owner",
      "outputs": [
        {
          "name": "",
          "type": "address"
        }
      ],
      "payable": false,
      "stateMutability": "view",
      "type": "function",
      "signature": "0x8da5cb5b"
    },
    {
      "constant": true,
      "inputs": [],
      "name": "isOwner",
      "outputs": [
        {
          "name": "",
          "type": "bool"
        }
      ],
      "payable": false,
      "stateMutability": "view",
      "type": "function",
      "signature": "0x8f32d59b"
    },
    {
      "constant": true,
      "inputs": [
        {
          "name": "",
          "type": "address"
        }
      ],
      "name": "voters",
      "outputs": [
        {
          "name": "",
          "type": "bool"
        }
      ],
      "payable": false,
      "stateMutability": "view",
      "type": "function",
      "signature": "0xa3ec138d"
    },
    {
      "constant": false,
      "inputs": [
        {
          "name": "newOwner",
          "type": "address"
        }
      ],
      "name": "transferOwnership",
      "outputs": [],
      "payable": false,
      "stateMutability": "nonpayable",
      "type": "function",
      "signature": "0xf2fde38b"
    },
    {
      "inputs": [],
      "payable": false,
      "stateMutability": "nonpayable",
      "type": "constructor",
      "signature": "constructor"
    },
    {
      "anonymous": false,
      "inputs": [
        {
          "indexed": true,
          "name": "_candidateId",
          "type": "uint8"
        }
      ],
      "name": "Voted",
      "type": "event",
      "signature": "0x7093329465ed557bd14ccfc262717be13ddd1773b2a8307dd8560299717a87b3"
    },
    {
      "anonymous": false,
      "inputs": [
        {
          "indexed": true,
          "name": "previousOwner",
          "type": "address"
        },
        {
          "indexed": true,
          "name": "newOwner",
          "type": "address"
        }
      ],
      "name": "OwnershipTransferred",
      "type": "event",
      "signature": "0x8be0079c531659141344cd1fd0a4f28419497f9722a3daafe3b4186f6b6457e0"
    },
    {
      "constant": false,
      "inputs": [
        {
          "name": "_name",
          "type": "string"
        }
      ],
      "name": "addCandidate",
      "outputs": [],
      "payable": false,
      "stateMutability": "nonpayable",
      "type": "function",
      "signature": "0x462e91ec"
    },
    {
      "constant": false,
      "inputs": [
        {
          "name": "_candidateId",
          "type": "uint8"
        }
      ],
      "name": "vote",
      "outputs": [],
      "payable": false,
      "stateMutability": "nonpayable",
      "type": "function",
      "signature": "0xb3f98adc"
    }
  ],
  "bytecode": "0x60806040523480156200001157600080fd5b50336000806101000a81548173ffffffffffffffffffffffffffffffffffffffff021916908373ffffffffffffffffffffffffffffffffffffffff1602179055506000809054906101000a900473ffffffffffffffffffffffffffffffffffffffff1673ffffffffffffffffffffffffffffffffffffffff16600073ffffffffffffffffffffffffffffffffffffffff167f8be0079c531659141344cd1fd0a4f28419497f9722a3daafe3b4186f6b6457e060405160405180910390a36200011d6040805190810160405280600f81526020017f566974616c696b204275746572696e000000000000000000000000000000000081525062000210640100000000026401000000009004565b6200016c6040805190810160405280601081526020017f5361746f736869204e616b616d6f746f0000000000000000000000000000000081525062000210640100000000026401000000009004565b620001bb6040805190810160405280600e81526020017f4368616e6770656e67205a68616f00000000000000000000000000000000000081525062000210640100000000026401000000009004565b6200020a6040805190810160405280600a81526020017f4e69636b20537a61626f0000000000000000000000000000000000000000000081525062000210640100000000026401000000009004565b620004a3565b620002296200039d640100000000026401000000009004565b1515620002c4576040517f08c379a00000000000000000000000000000000000000000000000000000000081526004018080602001828103825260328152602001807f6f6e6c7920746865206f776e6572206f662074686520636f6e7472616374206381526020017f616e207472616e7366657220746f6b656e73000000000000000000000000000081525060400191505060405180910390fd5b6003600081819054906101000a900460ff168092919060010191906101000a81548160ff021916908360ff16021790555050606060405190810160405280600360009054906101000a900460ff1660ff168152602001828152602001600081525060026000600360009054906101000a900460ff1660ff1660ff16815260200190815260200160002060008201518160000160006101000a81548160ff021916908360ff16021790555060208201518160010190805190602001906200038c929190620003f4565b506040820151816002015590505050565b60008060009054906101000a900473ffffffffffffffffffffffffffffffffffffffff1673ffffffffffffffffffffffffffffffffffffffff163373ffffffffffffffffffffffffffffffffffffffff1614905090565b828054600181600116156101000203166002900490600052602060002090601f016020900481019282601f106200043757805160ff191683800117855562000468565b8280016001018555821562000468579182015b82811115620004675782518255916020019190600101906200044a565b5b5090506200047791906200047b565b5090565b620004a091905b808211156200049c57600081600090555060010162000482565b5090565b90565b610ce080620004b36000396000f3fe608060405260043610610099576000357c0100000000000000000000000000000000000000000000000000000000900463ffffffff1680633866965c1461009e578063462e91ec146100cf5780636d6277f414610197578063715018a6146102625780638da5cb5b146102795780638f32d59b146102d0578063a3ec138d146102ff578063b3f98adc14610368578063f2fde38b146103a6575b600080fd5b3480156100aa57600080fd5b506100b36103f7565b604051808260ff1660ff16815260200191505060405180910390f35b3480156100db57600080fd5b50610195600480360360208110156100f257600080fd5b810190808035906020019064010000000081111561010f57600080fd5b82018360208201111561012157600080fd5b8035906020019184600183028401116401000000008311171561014357600080fd5b91908080601f016020809104026020016040519081016040528093929190818152602001838380828437600081840152601f19601f82011690508083019250505050505050919291929050505061040a565b005b3480156101a357600080fd5b506101d3600480360360208110156101ba57600080fd5b81019080803560ff169060200190929190505050610583565b604051808460ff1660ff16815260200180602001838152602001828103825284818151815260200191508051906020019080838360005b8381101561022557808201518184015260208101905061020a565b50505050905090810190601f1680156102525780820380516001836020036101000a031916815260200191505b5094505050505060405180910390f35b34801561026e57600080fd5b50610277610652565b005b34801561028557600080fd5b5061028e6107b3565b604051808273ffffffffffffffffffffffffffffffffffffffff1673ffffffffffffffffffffffffffffffffffffffff16815260200191505060405180910390f35b3480156102dc57600080fd5b506102e56107dc565b604051808215151515815260200191505060405180910390f35b34801561030b57600080fd5b5061034e6004803603602081101561032257600080fd5b81019080803573ffffffffffffffffffffffffffffffffffffffff169060200190929190505050610833565b604051808215151515815260200191505060405180910390f35b34801561037457600080fd5b506103a46004803603602081101561038b57600080fd5b81019080803560ff169060200190929190505050610853565b005b3480156103b257600080fd5b506103f5600480360360208110156103c957600080fd5b81019080803573ffffffffffffffffffffffffffffffffffffffff169060200190929190505050610a67565b005b600360009054906101000a900460ff1681565b6104126107dc565b15156104ac576040517f08c379a00000000000000000000000000000000000000000000000000000000081526004018080602001828103825260328152602001807f6f6e6c7920746865206f776e6572206f662074686520636f6e7472616374206381526020017f616e207472616e7366657220746f6b656e73000000000000000000000000000081525060400191505060405180910390fd5b6003600081819054906101000a900460ff168092919060010191906101000a81548160ff021916908360ff16021790555050606060405190810160405280600360009054906101000a900460ff1660ff168152602001828152602001600081525060026000600360009054906101000a900460ff1660ff1660ff16815260200190815260200160002060008201518160000160006101000a81548160ff021916908360ff1602179055506020820151816001019080519060200190610572929190610c0f565b506040820151816002015590505050565b60026020528060005260406000206000915090508060000160009054906101000a900460ff1690806001018054600181600116156101000203166002900480601f0160208091040260200160405190810160405280929190818152602001828054600181600116156101000203166002900480156106425780601f1061061757610100808354040283529160200191610642565b820191906000526020600020905b81548152906001019060200180831161062557829003601f168201915b5050505050908060020154905083565b61065a6107dc565b15156106f4576040517f08c379a00000000000000000000000000000000000000000000000000000000081526004018080602001828103825260328152602001807f6f6e6c7920746865206f776e6572206f662074686520636f6e7472616374206381526020017f616e207472616e7366657220746f6b656e73000000000000000000000000000081525060400191505060405180910390fd5b600073ffffffffffffffffffffffffffffffffffffffff166000809054906101000a900473ffffffffffffffffffffffffffffffffffffffff1673ffffffffffffffffffffffffffffffffffffffff167f8be0079c531659141344cd1fd0a4f28419497f9722a3daafe3b4186f6b6457e060405160405180910390a360008060006101000a81548173ffffffffffffffffffffffffffffffffffffffff021916908373ffffffffffffffffffffffffffffffffffffffff160217905550565b60008060009054906101000a900473ffffffffffffffffffffffffffffffffffffffff16905090565b60008060009054906101000a900473ffffffffffffffffffffffffffffffffffffffff1673ffffffffffffffffffffffffffffffffffffffff163373ffffffffffffffffffffffffffffffffffffffff1614905090565b60016020528060005260406000206000915054906101000a900460ff1681565b600160003373ffffffffffffffffffffffffffffffffffffffff1673ffffffffffffffffffffffffffffffffffffffff16815260200190815260200160002060009054906101000a900460ff16151515610915576040517f08c379a00000000000000000000000000000000000000000000000000000000081526004018080602001828103825260168152602001807f796f75206861766520616c726561647920766f7465640000000000000000000081525060200191505060405180910390fd5b60008160ff1611801561093d5750600360009054906101000a900460ff1660ff168160ff1611155b15156109b1576040517f08c379a00000000000000000000000000000000000000000000000000000000081526004018080602001828103825260188152602001807f6e6f7420612076616c69642063616e646964617465204964000000000000000081525060200191505060405180910390fd5b60018060003373ffffffffffffffffffffffffffffffffffffffff1673ffffffffffffffffffffffffffffffffffffffff16815260200190815260200160002060006101000a81548160ff021916908315150217905550600260008260ff1660ff168152602001908152602001600020600201600081548092919060010191905055508060ff167f7093329465ed557bd14ccfc262717be13ddd1773b2a8307dd8560299717a87b360405160405180910390a250565b610a6f6107dc565b1515610b09576040517f08c379a00000000000000000000000000000000000000000000000000000000081526004018080602001828103825260328152602001807f6f6e6c7920746865206f776e6572206f662074686520636f6e7472616374206381526020017f616e207472616e7366657220746f6b656e73000000000000000000000000000081525060400191505060405180910390fd5b610b1281610b15565b50565b600073ffffffffffffffffffffffffffffffffffffffff168173ffffffffffffffffffffffffffffffffffffffff1614151515610b5157600080fd5b8073ffffffffffffffffffffffffffffffffffffffff166000809054906101000a900473ffffffffffffffffffffffffffffffffffffffff1673ffffffffffffffffffffffffffffffffffffffff167f8be0079c531659141344cd1fd0a4f28419497f9722a3daafe3b4186f6b6457e060405160405180910390a3806000806101000a81548173ffffffffffffffffffffffffffffffffffffffff021916908373ffffffffffffffffffffffffffffffffffffffff16021790555050565b828054600181600116156101000203166002900490600052602060002090601f016020900481019282601f10610c5057805160ff1916838001178555610c7e565b82800160010185558215610c7e579182015b82811115610c7d578251825591602001919060010190610c62565b5b509050610c8b9190610c8f565b5090565b610cb191905b80821115610cad576000816000905550600101610c95565b5090565b9056fea165627a7a72305820b32a073f02b15a27839beccf7d90caddf39d8491c23feac06f47c564c42069c40029",
  "source": "pragma solidity 0.5.0;\n\nimport \"./Ownable.sol\";\nimport \"./SafeMath.sol\";\n\n/// @title Vote for a Candidatte\n/// @notice One vote per eth address\ncontract App is Ownable {\n\n    using SafeMath for uint256;\n    using SafeMath for uint8;\n\n    /// @notice Estructura para la info de un Candidato\n    struct Candidate {\n        uint8 id;\n        string name;\n        uint256 voteCount;\n    }\n\n    /// @notice Store voters addresses\n    mapping(address => bool) public voters;\n    \n    /// @notice Store Candidates\n    /// @return candidate by ID\n    mapping(uint8 => Candidate) public candidates;\n    \n    /// @notice Store number of candidates\n    uint8 public totalCandidates;\n\n    /// @notice Define an event when a vote is registered\n    event Voted (\n        uint8 indexed _candidateId\n    );\n    \n    /// @notice Add default candidates    \n    /// @dev function that runs only when deployed\n    constructor () public {\n        addCandidate(\"Vitalik Buterin\");\n        addCandidate(\"Satoshi Nakamoto\");\n        addCandidate(\"Changpeng Zhao\");\n        addCandidate(\"Nick Szabo\");\n    }\n    \n    /// @notice Creat new Candidate\n    /// @dev Only owner of contract can call this\n    function addCandidate (string memory _name) public onlyOwner {\n        totalCandidates ++;\n        candidates[totalCandidates] = Candidate(totalCandidates, _name, 0);\n    }\n    \n    /// @notice Register Vote\n    /// @param  _candidateId only need the id to vote\n    /// @dev reverts if sender has already voted \n    function vote (uint8 _candidateId) public {\n        require(!voters[msg.sender], \"you have already voted\");\n        require(_candidateId > 0 && _candidateId <= totalCandidates, \"not a valid candidate Id\");\n\n        /// @notice register sender address to voters\n        voters[msg.sender] = true;\n\n        candidates[_candidateId].voteCount ++;\n\n        /// @notice Emitir evento de voto hecho\n        emit Voted(_candidateId);\n    }\n}\n",
  "sourcePath": "/home/wafflemakr/Desktop/GITHUB/voting/contracts/App.sol",
  "compiler": {
    "name": "solc",
    "version": "0.5.0+commit.1d4f565a.Emscripten.clang"
  },
  "schemaVersion": "3.0.2",
  "updatedAt": "2019-03-15T03:54:13.345Z",
  "devdoc": {
    "methods": {
      "addCandidate(string)": {
        "details": "Only owner of contract can call this"
      },
      "constructor": {
        "details": "function that runs only when deployed"
      },
      "isOwner()": {
        "return": "true if `msg.sender` is the owner of the contract."
      },
      "owner()": {
        "return": "the address of the owner."
      },
      "renounceOwnership()": {
        "details": "Allows the current owner to relinquish control of the contract."
      },
      "transferOwnership(address)": {
        "details": "Allows the current owner to transfer control of the contract to a newOwner.",
        "params": {
          "newOwner": "The address to transfer ownership to."
        }
      },
      "vote(uint8)": {
        "details": "reverts if sender has already voted ",
        "params": {
          "_candidateId": "only need the id to vote"
        }
      }
    },
    "title": "Vote for a Candidatte"
  },
  "userdoc": {
    "methods": {
      "addCandidate(string)": {
        "notice": "Creat new Candidate"
      },
      "constructor": "Add default candidates    ",
      "renounceOwnership()": {
        "notice": "Renouncing to ownership will leave the contract without an owner. It will not be possible to call the functions with the `onlyOwner` modifier anymore."
      },
      "vote(uint8)": {
        "notice": "Register Vote"
      }
    },
    "notice": "One vote per eth address"
  }
}